:020000040800F2
:10000000E8070020A90100080716000809160008E3
:100010000B1600080D1600080F160008000000005F
:1000200000000000000000000000000011160008A1
:100030001316000800000000151600081916000825
:10004000C3010008C3010008C3010008C301000880
:10005000C3010008C3010008C3010008C301000870
:10006000C3010008C3010008C3010008C301000860
:10007000C3010008C3010008C3010008C301000850
:10008000C3010008C3010008C3010008000000000C
:10009000000000000000000000000000C301000894
:1000A000C3010008C3010008C3010008C301000820
:1000B000C3010008C3010008C3010008C301000810
:1000C000C3010008C3010008C3010008C301000800
:1000D000C3010008C3010008C301000800000000BC
:1000E000C3010008C3010008C301000800000000AC
:1000F000000000000000000000000000C301000834
:1001000000000000C3010008C3010008C30100088B
:1001100000000000000000000000000000000000DF
:10012000C3010008C3010008C3010008C30100089F
:10013000C3010008000000000000000000000000F3
:10014000000000000000000000000000C3010008E3
:10015000C3010008C3010008C3010008C30100086F
:10016000C3010008C30100080000000000000000F7
:10017000000000000000000000000000000000007F
:1001800000000000C30100080000000000000000A3
:10019000C3010008DFF80CD001F002FC0048004762
:1001A000C5150008E80700200648804706480047B4
:1001B000FEE7FEE7FEE7FEE7FEE7FEE7FEE7FEE717
:1001C000FEE7FEE72116000895010008F9480168DE
:1001D00041F001010160F74A002108321160026814
:1001E000F54B1A400260031DF44A1A60F14BF44AC1
:1001F00084331A60F14A103A1B1D1A60026822F417
:1002000080220260EB480C300160181D01607047CD
:10021000E8490022891C0A700870704702460020D5
:10022000510901290CD002290CD0E2497431096826
:1002300002F01F02012393400B4200D001207047BF
:10024000DC49F4E7DB497031F1E718B500204FF4E1
:10025000A04400903120FFF7E1FF0099491C009174
:10026000A14201D00028F5D03120FFF7D7FF0028A8
:1002700000D0012018BDCF4A116821F0F80141EAF1
:10028000C00010607047CF4908607047C94900221C
:1002900070310A700A70012802D0042801D10520AB
:1002A00008707047C8490860704741EA82115A08CF
:1002B00010B5C64B029C03EB02421143014341EAD5
:1002C0000460BC49091D086010BDBE49086670473E
:1002D000800140EA0170B749843108607047B9492C
:1002E00088667047800140EA0160B24940EA0270C6
:1002F000883108607047B34908677047B149C864DE
:100300007047AC4B08331A68084322F0EC62104384
:1003100018607047A74B08331A68084322F07842E8
:10032000104318607047A34A0832116821F0030196
:100330000143116070479F480830006800F00C00CE
:1003400070479C4A0832116821F0F00101431160A6
:100350007047984A0832116821F4E0510143116056
:100360007047944A0832116821F4604141EAC000A4
:100370001060704770B58F4B08331968944C11F0BA
:100380000C0104D06610042903D0082903D00460AE
:100390001BE0066019E0874A121D1168C1F3805501
:1003A000116801F03F0115B1B6FBF1F101E0B4FBBA
:1003B000F1F114681268C4F388146143C2F3014276
:1003C000521C5200B1FBF2F1016019680F2202EADF
:1003D0001111804A545C0168E14041601C680725A6
:1003E00005EA9424145D21FA04F484601B6805EA8C
:1003F0005333D25CD140C16070BDC0F301210329E9
:1004000008D16C4B08331968734A21F4F811024083
:100410000A431A60674970310A68C0F30B0002434F
:100420000A60704768494439086070476649403936
:10043000086070476349C1F85C0170475D4A8C32BF
:10044000116821F44011014311607047594A8C3200
:10045000116821F44001014311607047554A8C3204
:100460001168401E21F01F01014311607047514A7D
:100470008C3211686FF0FF0321F4F85103EB002078
:100480000843106070474B4A8C32116821F44031A8
:100490000143116070475149C1F8E0017047454A76
:1004A00030320029116801D0014300E0814311601E
:1004B0007047404A34320029116801D0014300E0FE
:1004C0008143116070473B4A40320029116801D0D6
:1004D000014300E0814311607047364A44320029ED
:1004E000116801D0014300E0814311607047314A37
:1004F00010320029116801D0014300E081431160EE
:1005000070472C4A14320029116801D0014300E0E1
:10051000814311607047274A20320029116801D0B9
:10052000014300E0814311607047224A24320029D0
:10053000116801D0014300E08143116070471D4AFA
:1005400050320029116801D0014300E0814311605D
:100550007047184A54320029116801D0014300E065
:10056000814311607047134A60320029116801D03D
:10057000014300E08143116070470E4A6432002954
:10058000116801D0014300E08143116070470949BF
:1005900070310128086803D020F008000860704717
:1005A00040F00800FAE7034A0D320029117817D00D
:1005B000014316E000380240FFFFF6EA1030002445
:1005C0000030002000004742800E47420000FFFF3D
:1005D0000024F40000000020FFFCFF0F0010474241
:1005E0008143117070470948016841F080710160D2
:1005F00070470146054A0020683A12680A4200D056
:10060000012070470149663908707047743802400C
:10061000774910B5884206D101210846FFF767FFE8
:10062000002101205BE07349884206D101210220AC
:10063000FFF75DFF0021022051E06F49884206D19B
:1006400001210420FFF753FF0021042047E06B49FC
:10065000884206D101210820FFF749FF0021082028
:100660003DE06749884206D101211020FFF73FFF96
:100670000021102033E06349884206D10121202067
:10068000FFF735FF0021202029E05F49884206D18D
:1006900001214020FFF72BFF002140201FE05B4994
:1006A000884206D101218020FFF721FF0021802010
:1006B00015E05749884202D1012184150AE05549C5
:1006C000884202D10121441504E0534988420AD1ED
:1006D000012104152046FFF70AFF00212046BDE84E
:1006E0001040FFF704BF10BDF0B5002201274FF006
:1006F000030C0B6807FA02F52B40AB422CD10668BD
:1007000053000CFA03F4A64306600E79D0F800E01B
:100710009E4046EA0E0606600E79012E01D0022E9A
:1007200012D18668A64386604E79D0F808E09E40D4
:1007300046EA0E0686604668AE43466045688E7996
:100740009640B6B235434560C568A543C560CC79CF
:100750009C40C3681C43C460521C102AC9D3F0BD1E
:100760004FF6FF7101600021017141718171C1710A
:10077000704708B541F480320092C261C1610099AE
:10078000C161C169C069009008BD024600201269BC
:100790000A4200D001207047006980B270470246CB
:1007A000002052690A4200D001207047406980B29F
:1007B000704701837047418370470AB101837047D6
:1007C000418370474161704742694A4042617047C6
:1007D0004B07DB0E9A40C90810B500EB8100016A97
:1007E0000F249C40A1430162016A1143016210BDC4
:1007F000000002400004024000080240000C0240D9
:10080000001002400014024000180240001C024088
:100810000020024000240240002802402DE9F0435D
:10082000016821F0010101600021016041608160E7
:10083000C160016121214161B849B84A3D251039A3
:10084000904202D18D60BDE8F083B44A4FF47466E3
:100850001832904201D18E60F5E7B04A4FF4741718
:100860003032904201D18F60EDE7AC4A4FF0746CAA
:100870004832904202D1C1F808C0E4E7A74BA84A29
:100880006033984201D1CA60DDE7A44CA54B7834AF
:10089000A04201D1CB60D6E7DFF88082A24C08F1FC
:1008A0009008404501D1CC60CDE7DFF870824FF071
:1008B0003D5908F1A808404502D1C1F80C90C2E7A3
:1008C0009A49DFF868820839404501D10D60BAE7DE
:1008D000964D1835A84201D10E60B4E7934D3035DE
:1008E000A84201D10F60AEE7904D4835A84202D131
:1008F000C1F800C0A7E78D4D8C496035091FA8429B
:1009000001D10A609FE7894A7832904201D10B6099
:1009100099E7864A9032904201D10C6093E7834A6E
:10092000A83290428FD1C1F800908CE730B50368AF
:100930007F4ACC6813400A682243D1E905452C431D
:100940002243CC6922430C6A22434C6A22438C6ABC
:1009500022434C6B22438C6B22431A430260426950
:1009600022F00703D1E90B2422431A4342610A69AA
:1009700042604A6882608968C16030BD00210160C0
:1009800041608160C160016141618161C161016259
:1009900041628162C16201634163816370470029E2
:1009A000016802D041F0010101E021F00101016084
:1009B00070470029016802D041F4004101E021F4B0
:1009C0000041016070470029016802D041F0200118
:1009D00001E021F0200101607047416070474068EC
:1009E00080B27047002A026802D042F4002201E07F
:1009F00022F400220260016170470029016802D0E0
:100A000041F4802101E021F48021016070470AB1A6
:100A100001617047C1607047014600200968090301
:100A200000D501207047014600200968C90700D0A1
:100A300001207047406900F03800704702463B4B88
:100A400000209A4202D2354A103A01E0374A103A61
:100A50008B0001D5526800E01268364B1A400A42FA
:100A600000D001207047314A904202D22B48103802
:100A700001E02E4810382F4A8B0001EA020101D50F
:100A8000C1607047816070470B0607D5436912B19A
:100A900043F0800301E023F080034361802908D004
:100AA000002A026801F01E0101D00A4300E08A43D7
:100AB0000260704730B51D4A0024904202D2174AA6
:100AC000103A01E0194A103A1B4B194205D01E2377
:100AD00003EAD12503682B4002E0406900F080035F
:100AE000880001D5506800E01068124A10400842A2
:100AF00001D003B10124204630BD0C4A904202D2FD
:100B00000648103801E0094810380A4A8B0001EA0B
:100B1000020101D5C16070478160704710600240DA
:100B20003D000020400F002000003D2010640240E6
:100B30003F801CF07D0F7D0F3C0F3C0FFE4910B530
:100B4000884206D101210846FFF7EFFC0021012071
:100B50005BE0B0F1804F09D0F84988420DD1012106
:100B60000220FFF7D8FC0021022070E00121084696
:100B7000FFF7D1FC0021012069E0F149884206D14C
:100B800001210420FFF7C7FC002104205FE0ED49AC
:100B9000884206D101210820FFF7BDFC0021082072
:100BA00055E0E949884206D101211020FFF7B3FC46
:100BB000002110204BE0E549884206D10121202088
:100BC000FFF7A9FC0021202041E0E149884206D13D
:100BD00001210220FFF7A9FC0021022015E0DD49D8
:100BE000884202D101210C040AE0DB49884202D18B
:100BF00001214C0404E0D94988420AD101218C0426
:100C00002046FFF792FC00212046BDE81040FFF788
:100C10008CBCD349884206D101214020FFF77BFCE0
:100C20000021402013E0CF49884206D101218020D5
:100C3000FFF771FC0021802009E0CB4988420AD1EE
:100C4000841501212046FFF766FC00212046BDE8FF
:100C50001040FFF760BC10BD30B50288B64CBC4DEB
:100C6000A0420DD0A8420BD0B0F1804F08D0B34BBA
:100C7000984205D0B24B984202D0B24B984203D171
:100C800022F070034A881A43AF4B984206D0AF4B0C
:100C9000984203D022F440730A891A4302804A68BA
:100CA000C2620A880285A04201D0A84201D1897A95
:100CB00001860121818230BD4FF0FF31416000216A
:100CC0000180018141808172704701858282704775
:100CD000028822F070020A43028070474162704726
:100CE000C1627047406A7047008D704700290188D3
:100CF00002D041F0020101E021F0020101807047C1
:100D00000029018802D041F0040101E021F0040132
:100D1000018070470029018802D041F0800101E084
:100D200021F0800101807047028822F008020280D1
:100D300002880A4302807047028822F440720280CF
:100D400002880A43028070470029018802D041F0DE
:100D5000010101E021F001010180704730B5028CF2
:100D600022F001020284028C8388048B22F00202AA
:100D700024F073050C882C438D8915434A882A4337
:100D80006D4DA84202D0724DA8420DD122F0080547
:100D9000CA8923F440732A4322F004058A882A432F
:100DA0000D8A1D434B8A2B438380048389684163EA
:100DB000028430BD70B5028C22F010020284028CD5
:100DC0008388048B0D8824F4E6464FF6FF7404EA0A
:100DD000052535438E8922F0200204EA06161643C3
:100DE0004A8804EA02123243534EB04202D0584EAF
:100DF000B04215D122F08006CA8923F4406304EA88
:100E00000212324322F040068A8804EA0212324378
:100E10000E8A04EA86061E434B8A04EA83033343A0
:100E20008380058389688163028470BD70B5028CFC
:100E300022F480720284028C8388848B0D8824F0D3
:100E4000730425438E894FF6FF7422F4007204EA7E
:100E5000062616434A8804EA02223243364EB0423E
:100E600002D03B4EB04215D122F40066CA8923F469
:100E7000405304EA0222324322F480668A8804EA5C
:100E8000022232430E8A04EA06161E434B8A04EA03
:100E900003133343838085838968C163028470BDF3
:100EA00070B5028C22F480520284058C8288838B78
:100EB0000C8823F4E6464FF6FF7303EA0424344318
:100EC00025F400568D8903EA053535434E8803EA3B
:100ED00006362E43184DA84202D01D4DA84205D11A
:100EE00022F480450A8A03EA82122A43828084839C
:100EF00089680164068470BD002101804180818081
:100F000081608181C18101824182704730B50124B5
:100F1000058C00F118038C40A543058431B30829E2
:100F20002CD0091FC1F34E001844016848F6FF7326
:100F30001940016001681AE000000140000400400F
:100F400000080040000C0040001000400014004069
:100F500000040140004001400044014000480140BD
:100F600000180040001C00400020004006E04FF642
:100F7000FF7303EA02221143016030BD03EB51000D
:100F800001684FF68F73194001600168F3E7416310
:100F9000704781637047C163704701647047028B7B
:100FA00022F070020A4302837047028B4FF6FF73F0
:100FB00022F4E04203EA0121114301837047828B4E
:100FC00022F070020A4382837047828B4FF6FF73D0
:100FD00022F4E04203EA0121114381837047028B2E
:100FE00022F008020A4302837047028B4FF6FF7318
:100FF00022F4006203EA0121114301837047828BCE
:1010000022F008020A4382837047828B4FF6FF73F7
:1010100022F4006203EA0121114381837047028BAD
:1010200022F004020A4302837047028B4FF6FF73DB
:1010300022F4806203EA0121114301837047828B0D
:1010400022F004020A4382837047828B4FF6FF73BB
:1010500022F4806203EA0121114381837047028BED
:1010600022F080020A4302837047028B4FF6FF731F
:10107000C2F30E0203EA0121114301837047828B00
:1010800022F080020A4382837047828B4FF6FF73FF
:10109000C2F30E0203EA0121114381837047028CDF
:1010A00022F002020A4302847047028C22F00802F6
:1010B0000A4302847047028C4FF6FF7322F020022D
:1010C00003EA0111114301847047028C4FF6FF734C
:1010D00022F0800203EA0111114301847047028C5F
:1010E0004FF6FF7322F4007203EA012111430184D9
:1010F0007047028C4FF6FF7322F4006203EA01216D
:10110000114301847047028C4FF6FF7322F40052A2
:1011100003EA013111430184704710B50123048CA7
:101120008B409C430484038C8A401343038410BD8A
:1011300010B50423048C8B409C430484038C8A40A8
:101140001343038410BD828B22F440628283828B1E
:101150004FF6FF7303EA01210A4382837047828BB3
:1011600022F00C028283828B0A4382837047028BB7
:1011700022F440620283028B4FF6FF7303EA0121DF
:101180000A4302837047F0B5048C24F010040484F1
:10119000078B068C4FF6FF7404EA011527F473479A
:1011A00004EA0331394304EA02220A4326F0A0018B
:1011B000294341F0100102830184F0BD028B22F02B
:1011C0000C020283028B0A43028370472DE9F0412F
:1011D0000C460E884988A288238905460EB3042E42
:1011E00026D0082E2E8C4FF6FF7028D026F480567D
:1011F0002E84AF8B2E8C00EA022200EA013127F404
:1012000073473A4300EA0330104326F420420A436E
:1012100042F48051A8832984E1882846BDE8F04142
:1012200091E700F062F9E1882846BDE8F041C5E7A2
:10123000FFF7A9FFE1882846BDE8F04197E726F4CB
:1012400080762E84AF8B2E8C00EA012100EA0310F9
:10125000104327F0F307384326F420620A4342F490
:101260008071A8832984E1882846BDE8F04176E7AB
:1012700000210180418001228280C180018170476C
:101280002DE9F0410C46002649880746012501B9A1
:101290000226A288012A00D102252088238900285D
:1012A000384610D0FFF76FFFE1883846FFF75FFF41
:1012B00023892A463146384600F017F9E188384636
:1012C000BDE8F0417AE700F010F9E1883846FFF711
:1012D00075FF23892A4631463846FFF754FFE188D7
:1012E0003846BDE8F04142E7406B7047806B70477D
:1012F000C06B7047006C704710B50A884B88CC886B
:101300001A438B8823431A430B891A434B898989D3
:101310001A430A43A0F8442010BD002101804180F7
:101320008180C1800181418181817047002930F82D
:10133000441F02D041F4004101E0C1F30E010180DD
:1013400070470029818802D041F0040101E021F0BA
:101350000401818070470029818802D041F0010199
:1013600001E021F0010181807047002A828901D0CB
:101370000A4300E08A4382817047818270470246B7
:101380000020128A0A4200D001207047C94301821E
:10139000704702460020138A92890B4202EA01023A
:1013A00002D0002A00D001207047C9430182704753
:1013B0001143A0F848107047002A828901D00A43DF
:1013C00000E08A43828170470029818802D041F081
:1013D000080101E021F0080181807047018921F0B6
:1013E000070101817047028922F070020A430281DD
:1013F000704700B50346FFF7F6FF188940F0070075
:10140000188100BD70B516460D46602904464FF0A0
:10141000010231460AD000F068F829462046FFF75D
:10142000E2FF208940F00700208170BDFFF7ABFE8E
:10143000F3E730B504894FF6FF7505EA032313433C
:10144000E4B20B432343038130BD10B50446FFF7DC
:10145000F0FF208940F07700208110BD10B50446D0
:10146000FFF7E7FF208940F48040208110BD82888B
:1014700022F07002828082880A438280704702894B
:1014800022F00702028102890A4302817047028921
:1014900022F08002028102890A430281704770B5FE
:1014A0000589048B068C25F007050D434FF6FC419A
:1014B0000C4040F201110C434FF6FF7101EA031199
:1014C00026F022061143314305810483018470BD57
:1014D0000029818802D041F0800101E021F08001E3
:1014E00081807047A0F85010704770B5048C24F0CC
:1014F00001040484058B048C4FF6FF7606EA03137F
:10150000134325F0F3052B4324F00A020A4342F06B
:1015100001010383018470BD234810B54168491C53
:101520004160816811B18168491E8160AFF300801C
:1015300010BD10B51C4C2078002821D10120FEF7E9
:1015400067FEFEF782FE0028FBD0184801684FF4C2
:101550007A70B1FBF0F0401EB0F1807F11D24FF0F5
:10156000E0225061124BF02083F8140D00209061AE
:10157000072010610F48B1FBF0F0E06001202070FF
:1015800010BDFEE708480078002805D04FF0E020A5
:10159000016941F00201016170474FF0E0200169EB
:1015A00021F002010161704710000020200000209E
:1015B0000FE000E0C0C62D0001B50098411E00916B
:1015C000FBD208BD08B500F0E7F86E2542F21076B0
:1015D0000024E0B2009004EB84004006020E60425A
:1015E00000EB800005EB40000023C0B2194600F07C
:1015F00094F9641C0B2CECDB002000F085F93046DC
:10160000FFF7DAFFE4E77047FEE7FEE7FEE7FEE7F5
:10161000704770477047704710B5FFF77DFF10BDEA
:10162000544810B5016841F47001016052480168E6
:1016300041F001010160504A002108321160026846
:101640004E4B1A400260031D4D4A1A60026822F494
:101650008022026048480C30016000F03CF84549A7
:101660004FF000608039086010BD70B5424D0835FC
:101670002868444B444910F00C0004D05E10042844
:1016800003D0082803D00B601BE00E6019E03A4A33
:10169000121D1068C0F38054106800F03F0014B1B0
:1016A000B6FBF0F001E0B3FBF0F013681268C3F38F
:1016B00088135843C2F30142521C5200B0FBF2F0AF
:1016C00008602868304AC0F30310121D105C0A68D5
:1016D000C2400A6070BD0CB50022274900920192F9
:1016E000086840F4803008604FF4A043086800F4B4
:1016F000003001900098401C0090019810B90098AB
:101700009842F3D10868800332D5012001901A482D
:101710004030026842F0805202601C48026842F485
:1017200040420260144808300268026002680260A9
:10173000026842F480520260031F154A1A600A6868
:1017400042F080720A600A689201FCD5114A40F2A8
:1017500002711160016821F003010160016841F02C
:10176000020101600168C1F381010229FAD10CBDB7
:1017700001920CBD88ED00E000380240FFFFF6FE4C
:10178000103000240024F4002000002000700040ED
:1017900008544107003C02402DE9FF41012102208D
:1017A000FEF77DFE6E4810216E4C01600221017132
:1017B000417101462046FEF797FF02220421204690
:1017C000FFF706F801210220FEF77DFE6846FEF7CE
:1017D000D1FD654900980024B0FBF1F063481B215E
:1017E000634E4160032101800481448001463046FC
:1017F000FFF732FA5D4860210C30012501804580F9
:101800008460848101463046FFF7A8FA08213046FB
:10181000FFF7E5FB01214805FEF741FE554F38462D
:10182000FEF7FCFF51482A21203001614FF0206172
:1018300001604021C16000F13C01816069030162E7
:10184000C9108161C0E90B454949446334314462A0
:1018500041604461C9148463C161890181620146A8
:101860003846FFF763F8012211023046FFF7A4FD66
:10187000BDE8FF812DE9F0470C46804601EB4400AE
:101880002A21DFF8E89001EBC0001FFA80FA00255A
:1018900009F15C0917E005EB450709EB071618F895
:1018A0000700314600F046F8474406F11001787809
:1018B00000F040F806F12001B87800F03BF86D1C0C
:1018C000641EEDB2A4B2002CE5D105EB450109EB95
:1018D0000110542100F059F8264C51462046FFF7DC
:1018E0007CF8234D00212846FFF7F8F9002128460F
:1018F000FFF74DFB01212846FFF726FA2046BDE8F9
:10190000F0470121FFF74BB8072805D21A4900EB31
:10191000401008440B21ADE7704730B503EB431589
:10192000154B039C2B4404EB440418551819817083
:10193000427030BD70B5002312241A46082500FA03
:1019400002F6360602D521F8134001E021F81350C3
:101950005B1C521CD2B2DBB2082AF0D370BD00006F
:10196000340000200004024000D8B8053C000020EC
:101970000004004040600240FC020020D2B201E0BE
:1019800000F8012B491EFBD270470022F6E710B584
:1019900013460A4604461946FFF7F0FF204610BDDD
:1019A000064C074D06E0E06840F0010394E80700AC
:1019B00098471034AC42F6D3FEF7F0FBE419000868
:1019C000041A000802E008C8121F08C1002AFAD150
:1019D00070477047002001E001C1121F002AFBD1AF
:1019E00070470000041A0008000000203C000000BE
:1019F000C4190008401A00083C000020AC07000091
:101A0000D4190008000000000102030401020304CD
:101A100006070809000000000000000000000000A8
:101A20000000000000BD01050000000000000000F3
:101A3000010203040607080900000000000000007E
:040000050800019559
:00000001FF
